{
  "_format": "hh-sol-artifact-1",
  "contractName": "NFTMint",
  "sourceName": "contracts/NFTMint.sol",
  "abi": [
    {
      "inputs": [],
      "stateMutability": "nonpayable",
      "type": "constructor"
    },
    {
      "inputs": [
        {
          "internalType": "address",
          "name": "sender",
          "type": "address"
        },
        {
          "internalType": "uint256",
          "name": "tokenId",
          "type": "uint256"
        },
        {
          "internalType": "address",
          "name": "owner",
          "type": "address"
        }
      ],
      "name": "ERC721IncorrectOwner",
      "type": "error"
    },
    {
      "inputs": [
        {
          "internalType": "address",
          "name": "operator",
          "type": "address"
        },
        {
          "internalType": "uint256",
          "name": "tokenId",
          "type": "uint256"
        }
      ],
      "name": "ERC721InsufficientApproval",
      "type": "error"
    },
    {
      "inputs": [
        {
          "internalType": "address",
          "name": "approver",
          "type": "address"
        }
      ],
      "name": "ERC721InvalidApprover",
      "type": "error"
    },
    {
      "inputs": [
        {
          "internalType": "address",
          "name": "operator",
          "type": "address"
        }
      ],
      "name": "ERC721InvalidOperator",
      "type": "error"
    },
    {
      "inputs": [
        {
          "internalType": "address",
          "name": "owner",
          "type": "address"
        }
      ],
      "name": "ERC721InvalidOwner",
      "type": "error"
    },
    {
      "inputs": [
        {
          "internalType": "address",
          "name": "receiver",
          "type": "address"
        }
      ],
      "name": "ERC721InvalidReceiver",
      "type": "error"
    },
    {
      "inputs": [
        {
          "internalType": "address",
          "name": "sender",
          "type": "address"
        }
      ],
      "name": "ERC721InvalidSender",
      "type": "error"
    },
    {
      "inputs": [
        {
          "internalType": "uint256",
          "name": "tokenId",
          "type": "uint256"
        }
      ],
      "name": "ERC721NonexistentToken",
      "type": "error"
    },
    {
      "inputs": [
        {
          "internalType": "address",
          "name": "owner",
          "type": "address"
        }
      ],
      "name": "OwnableInvalidOwner",
      "type": "error"
    },
    {
      "inputs": [
        {
          "internalType": "address",
          "name": "account",
          "type": "address"
        }
      ],
      "name": "OwnableUnauthorizedAccount",
      "type": "error"
    },
    {
      "anonymous": false,
      "inputs": [
        {
          "indexed": true,
          "internalType": "address",
          "name": "owner",
          "type": "address"
        },
        {
          "indexed": true,
          "internalType": "address",
          "name": "approved",
          "type": "address"
        },
        {
          "indexed": true,
          "internalType": "uint256",
          "name": "tokenId",
          "type": "uint256"
        }
      ],
      "name": "Approval",
      "type": "event"
    },
    {
      "anonymous": false,
      "inputs": [
        {
          "indexed": true,
          "internalType": "address",
          "name": "owner",
          "type": "address"
        },
        {
          "indexed": true,
          "internalType": "address",
          "name": "operator",
          "type": "address"
        },
        {
          "indexed": false,
          "internalType": "bool",
          "name": "approved",
          "type": "bool"
        }
      ],
      "name": "ApprovalForAll",
      "type": "event"
    },
    {
      "anonymous": false,
      "inputs": [
        {
          "indexed": false,
          "internalType": "uint256",
          "name": "_fromTokenId",
          "type": "uint256"
        },
        {
          "indexed": false,
          "internalType": "uint256",
          "name": "_toTokenId",
          "type": "uint256"
        }
      ],
      "name": "BatchMetadataUpdate",
      "type": "event"
    },
    {
      "anonymous": false,
      "inputs": [
        {
          "indexed": false,
          "internalType": "uint256",
          "name": "_tokenId",
          "type": "uint256"
        }
      ],
      "name": "MetadataUpdate",
      "type": "event"
    },
    {
      "anonymous": false,
      "inputs": [
        {
          "indexed": true,
          "internalType": "address",
          "name": "previousOwner",
          "type": "address"
        },
        {
          "indexed": true,
          "internalType": "address",
          "name": "newOwner",
          "type": "address"
        }
      ],
      "name": "OwnershipTransferred",
      "type": "event"
    },
    {
      "anonymous": false,
      "inputs": [
        {
          "indexed": true,
          "internalType": "address",
          "name": "from",
          "type": "address"
        },
        {
          "indexed": true,
          "internalType": "address",
          "name": "to",
          "type": "address"
        },
        {
          "indexed": true,
          "internalType": "uint256",
          "name": "tokenId",
          "type": "uint256"
        }
      ],
      "name": "Transfer",
      "type": "event"
    },
    {
      "inputs": [
        {
          "internalType": "address",
          "name": "to",
          "type": "address"
        },
        {
          "internalType": "uint256",
          "name": "tokenId",
          "type": "uint256"
        }
      ],
      "name": "approve",
      "outputs": [],
      "stateMutability": "nonpayable",
      "type": "function"
    },
    {
      "inputs": [
        {
          "internalType": "address",
          "name": "owner",
          "type": "address"
        }
      ],
      "name": "balanceOf",
      "outputs": [
        {
          "internalType": "uint256",
          "name": "",
          "type": "uint256"
        }
      ],
      "stateMutability": "view",
      "type": "function"
    },
    {
      "inputs": [
        {
          "internalType": "uint256",
          "name": "tokenId",
          "type": "uint256"
        }
      ],
      "name": "getApproved",
      "outputs": [
        {
          "internalType": "address",
          "name": "",
          "type": "address"
        }
      ],
      "stateMutability": "view",
      "type": "function"
    },
    {
      "inputs": [
        {
          "internalType": "address",
          "name": "owner",
          "type": "address"
        },
        {
          "internalType": "address",
          "name": "operator",
          "type": "address"
        }
      ],
      "name": "isApprovedForAll",
      "outputs": [
        {
          "internalType": "bool",
          "name": "",
          "type": "bool"
        }
      ],
      "stateMutability": "view",
      "type": "function"
    },
    {
      "inputs": [
        {
          "internalType": "string",
          "name": "tokenURI",
          "type": "string"
        }
      ],
      "name": "mintNFT",
      "outputs": [
        {
          "internalType": "uint256",
          "name": "",
          "type": "uint256"
        }
      ],
      "stateMutability": "nonpayable",
      "type": "function"
    },
    {
      "inputs": [],
      "name": "name",
      "outputs": [
        {
          "internalType": "string",
          "name": "",
          "type": "string"
        }
      ],
      "stateMutability": "view",
      "type": "function"
    },
    {
      "inputs": [],
      "name": "owner",
      "outputs": [
        {
          "internalType": "address",
          "name": "",
          "type": "address"
        }
      ],
      "stateMutability": "view",
      "type": "function"
    },
    {
      "inputs": [
        {
          "internalType": "uint256",
          "name": "tokenId",
          "type": "uint256"
        }
      ],
      "name": "ownerOf",
      "outputs": [
        {
          "internalType": "address",
          "name": "",
          "type": "address"
        }
      ],
      "stateMutability": "view",
      "type": "function"
    },
    {
      "inputs": [],
      "name": "renounceOwnership",
      "outputs": [],
      "stateMutability": "nonpayable",
      "type": "function"
    },
    {
      "inputs": [
        {
          "internalType": "address",
          "name": "from",
          "type": "address"
        },
        {
          "internalType": "address",
          "name": "to",
          "type": "address"
        },
        {
          "internalType": "uint256",
          "name": "tokenId",
          "type": "uint256"
        }
      ],
      "name": "safeTransferFrom",
      "outputs": [],
      "stateMutability": "nonpayable",
      "type": "function"
    },
    {
      "inputs": [
        {
          "internalType": "address",
          "name": "from",
          "type": "address"
        },
        {
          "internalType": "address",
          "name": "to",
          "type": "address"
        },
        {
          "internalType": "uint256",
          "name": "tokenId",
          "type": "uint256"
        },
        {
          "internalType": "bytes",
          "name": "data",
          "type": "bytes"
        }
      ],
      "name": "safeTransferFrom",
      "outputs": [],
      "stateMutability": "nonpayable",
      "type": "function"
    },
    {
      "inputs": [
        {
          "internalType": "address",
          "name": "operator",
          "type": "address"
        },
        {
          "internalType": "bool",
          "name": "approved",
          "type": "bool"
        }
      ],
      "name": "setApprovalForAll",
      "outputs": [],
      "stateMutability": "nonpayable",
      "type": "function"
    },
    {
      "inputs": [
        {
          "internalType": "bytes4",
          "name": "interfaceId",
          "type": "bytes4"
        }
      ],
      "name": "supportsInterface",
      "outputs": [
        {
          "internalType": "bool",
          "name": "",
          "type": "bool"
        }
      ],
      "stateMutability": "view",
      "type": "function"
    },
    {
      "inputs": [],
      "name": "symbol",
      "outputs": [
        {
          "internalType": "string",
          "name": "",
          "type": "string"
        }
      ],
      "stateMutability": "view",
      "type": "function"
    },
    {
      "inputs": [],
      "name": "tokenCounter",
      "outputs": [
        {
          "internalType": "uint256",
          "name": "",
          "type": "uint256"
        }
      ],
      "stateMutability": "view",
      "type": "function"
    },
    {
      "inputs": [
        {
          "internalType": "uint256",
          "name": "tokenId",
          "type": "uint256"
        }
      ],
      "name": "tokenURI",
      "outputs": [
        {
          "internalType": "string",
          "name": "",
          "type": "string"
        }
      ],
      "stateMutability": "view",
      "type": "function"
    },
    {
      "inputs": [
        {
          "internalType": "address",
          "name": "from",
          "type": "address"
        },
        {
          "internalType": "address",
          "name": "to",
          "type": "address"
        },
        {
          "internalType": "uint256",
          "name": "tokenId",
          "type": "uint256"
        }
      ],
      "name": "transferFrom",
      "outputs": [],
      "stateMutability": "nonpayable",
      "type": "function"
    },
    {
      "inputs": [
        {
          "internalType": "address",
          "name": "newOwner",
          "type": "address"
        }
      ],
      "name": "transferOwnership",
      "outputs": [],
      "stateMutability": "nonpayable",
      "type": "function"
    }
  ],
  "bytecode": "0x608060405234801561001057600080fd5b50336040518060400160405280600581526020017f4d794e46540000000000000000000000000000000000000000000000000000008152506040518060400160405280600481526020017f4d4e465400000000000000000000000000000000000000000000000000000000815250816000908161008d9190610445565b50806001908161009d9190610445565b505050600073ffffffffffffffffffffffffffffffffffffffff168173ffffffffffffffffffffffffffffffffffffffff16036101125760006040517f1e4fbdf70000000000000000000000000000000000000000000000000000000081526004016101099190610558565b60405180910390fd5b6101218161012f60201b60201c565b506000600881905550610573565b6000600760009054906101000a900473ffffffffffffffffffffffffffffffffffffffff16905081600760006101000a81548173ffffffffffffffffffffffffffffffffffffffff021916908373ffffffffffffffffffffffffffffffffffffffff1602179055508173ffffffffffffffffffffffffffffffffffffffff168173ffffffffffffffffffffffffffffffffffffffff167f8be0079c531659141344cd1fd0a4f28419497f9722a3daafe3b4186f6b6457e060405160405180910390a35050565b600081519050919050565b7f4e487b7100000000000000000000000000000000000000000000000000000000600052604160045260246000fd5b7f4e487b7100000000000000000000000000000000000000000000000000000000600052602260045260246000fd5b6000600282049050600182168061027657607f821691505b6020821081036102895761028861022f565b5b50919050565b60008190508160005260206000209050919050565b60006020601f8301049050919050565b600082821b905092915050565b6000600883026102f17fffffffffffffffffffffffffffffffffffffffffffffffffffffffffffffffff826102b4565b6102fb86836102b4565b95508019841693508086168417925050509392505050565b6000819050919050565b6000819050919050565b600061034261033d61033884610313565b61031d565b610313565b9050919050565b6000819050919050565b61035c83610327565b61037061036882610349565b8484546102c1565b825550505050565b600090565b610385610378565b610390818484610353565b505050565b5b818110156103b4576103a960008261037d565b600181019050610396565b5050565b601f8211156103f9576103ca8161028f565b6103d3846102a4565b810160208510156103e2578190505b6103f66103ee856102a4565b830182610395565b50505b505050565b600082821c905092915050565b600061041c600019846008026103fe565b1980831691505092915050565b6000610435838361040b565b9150826002028217905092915050565b61044e826101f5565b67ffffffffffffffff81111561046757610466610200565b5b610471825461025e565b61047c8282856103b8565b600060209050601f8311600181146104af576000841561049d578287015190505b6104a78582610429565b86555061050f565b601f1984166104bd8661028f565b60005b828110156104e5578489015182556001820191506020850194506020810190506104c0565b8683101561050257848901516104fe601f89168261040b565b8355505b6001600288020188555050505b505050505050565b600073ffffffffffffffffffffffffffffffffffffffff82169050919050565b600061054282610517565b9050919050565b61055281610537565b82525050565b600060208201905061056d6000830184610549565b92915050565b612683806105826000396000f3fe608060405234801561001057600080fd5b50600436106101165760003560e01c80638da5cb5b116100a2578063c87b56dd11610071578063c87b56dd146102cb578063d082e381146102fb578063e985e9c514610319578063f2fde38b14610349578063fb37e8831461036557610116565b80638da5cb5b1461025757806395d89b4114610275578063a22cb46514610293578063b88d4fde146102af57610116565b806323b872dd116100e957806323b872dd146101b557806342842e0e146101d15780636352211e146101ed57806370a082311461021d578063715018a61461024d57610116565b806301ffc9a71461011b57806306fdde031461014b578063081812fc14610169578063095ea7b314610199575b600080fd5b61013560048036038101906101309190611b02565b610395565b6040516101429190611b4a565b60405180910390f35b6101536103f6565b6040516101609190611bf5565b60405180910390f35b610183600480360381019061017e9190611c4d565b610488565b6040516101909190611cbb565b60405180910390f35b6101b360048036038101906101ae9190611d02565b6104a4565b005b6101cf60048036038101906101ca9190611d42565b6104ba565b005b6101eb60048036038101906101e69190611d42565b6105bc565b005b61020760048036038101906102029190611c4d565b6105dc565b6040516102149190611cbb565b60405180910390f35b61023760048036038101906102329190611d95565b6105ee565b6040516102449190611dd1565b60405180910390f35b6102556106a8565b005b61025f6106bc565b60405161026c9190611cbb565b60405180910390f35b61027d6106e6565b60405161028a9190611bf5565b60405180910390f35b6102ad60048036038101906102a89190611e18565b610778565b005b6102c960048036038101906102c49190611f8d565b61078e565b005b6102e560048036038101906102e09190611c4d565b6107b3565b6040516102f29190611bf5565b60405180910390f35b6103036108c6565b6040516103109190611dd1565b60405180910390f35b610333600480360381019061032e9190612010565b6108cc565b6040516103409190611b4a565b60405180910390f35b610363600480360381019061035e9190611d95565b610960565b005b61037f600480360381019061037a91906120f1565b6109e6565b60405161038c9190611dd1565b60405180910390f35b6000634906490660e01b7bffffffffffffffffffffffffffffffffffffffffffffffffffffffff1916827bffffffffffffffffffffffffffffffffffffffffffffffffffffffff191614806103ef57506103ee82610a25565b5b9050919050565b60606000805461040590612169565b80601f016020809104026020016040519081016040528092919081815260200182805461043190612169565b801561047e5780601f106104535761010080835404028352916020019161047e565b820191906000526020600020905b81548152906001019060200180831161046157829003601f168201915b5050505050905090565b600061049382610b07565b5061049d82610b8f565b9050919050565b6104b682826104b1610bcc565b610bd4565b5050565b600073ffffffffffffffffffffffffffffffffffffffff168273ffffffffffffffffffffffffffffffffffffffff160361052c5760006040517f64a0ae920000000000000000000000000000000000000000000000000000000081526004016105239190611cbb565b60405180910390fd5b6000610540838361053b610bcc565b610be6565b90508373ffffffffffffffffffffffffffffffffffffffff168173ffffffffffffffffffffffffffffffffffffffff16146105b6578382826040517f64283d7b0000000000000000000000000000000000000000000000000000000081526004016105ad9392919061219a565b60405180910390fd5b50505050565b6105d78383836040518060200160405280600081525061078e565b505050565b60006105e782610b07565b9050919050565b60008073ffffffffffffffffffffffffffffffffffffffff168273ffffffffffffffffffffffffffffffffffffffff16036106615760006040517f89c62b640000000000000000000000000000000000000000000000000000000081526004016106589190611cbb565b60405180910390fd5b600360008373ffffffffffffffffffffffffffffffffffffffff1673ffffffffffffffffffffffffffffffffffffffff168152602001908152602001600020549050919050565b6106b0610e00565b6106ba6000610e87565b565b6000600760009054906101000a900473ffffffffffffffffffffffffffffffffffffffff16905090565b6060600180546106f590612169565b80601f016020809104026020016040519081016040528092919081815260200182805461072190612169565b801561076e5780601f106107435761010080835404028352916020019161076e565b820191906000526020600020905b81548152906001019060200180831161075157829003601f168201915b5050505050905090565b61078a610783610bcc565b8383610f4d565b5050565b6107998484846104ba565b6107ad6107a4610bcc565b858585856110bc565b50505050565b60606107be82610b07565b5060006006600084815260200190815260200160002080546107df90612169565b80601f016020809104026020016040519081016040528092919081815260200182805461080b90612169565b80156108585780601f1061082d57610100808354040283529160200191610858565b820191906000526020600020905b81548152906001019060200180831161083b57829003601f168201915b50505050509050600061086961126d565b9050600081510361087e5781925050506108c1565b6000825111156108b357808260405160200161089b92919061220d565b604051602081830303815290604052925050506108c1565b6108bc84611284565b925050505b919050565b60085481565b6000600560008473ffffffffffffffffffffffffffffffffffffffff1673ffffffffffffffffffffffffffffffffffffffff16815260200190815260200160002060008373ffffffffffffffffffffffffffffffffffffffff1673ffffffffffffffffffffffffffffffffffffffff16815260200190815260200160002060009054906101000a900460ff16905092915050565b610968610e00565b600073ffffffffffffffffffffffffffffffffffffffff168173ffffffffffffffffffffffffffffffffffffffff16036109da5760006040517f1e4fbdf70000000000000000000000000000000000000000000000000000000081526004016109d19190611cbb565b60405180910390fd5b6109e381610e87565b50565b60008060085490506109f833826112ed565b610a02818461130b565b600160086000828254610a159190612260565b9250508190555080915050919050565b60007f80ac58cd000000000000000000000000000000000000000000000000000000007bffffffffffffffffffffffffffffffffffffffffffffffffffffffff1916827bffffffffffffffffffffffffffffffffffffffffffffffffffffffff19161480610af057507f5b5e139f000000000000000000000000000000000000000000000000000000007bffffffffffffffffffffffffffffffffffffffffffffffffffffffff1916827bffffffffffffffffffffffffffffffffffffffffffffffffffffffff1916145b80610b005750610aff82611367565b5b9050919050565b600080610b13836113d1565b9050600073ffffffffffffffffffffffffffffffffffffffff168173ffffffffffffffffffffffffffffffffffffffff1603610b8657826040517f7e273289000000000000000000000000000000000000000000000000000000008152600401610b7d9190611dd1565b60405180910390fd5b80915050919050565b60006004600083815260200190815260200160002060009054906101000a900473ffffffffffffffffffffffffffffffffffffffff169050919050565b600033905090565b610be1838383600161140e565b505050565b600080610bf2846113d1565b9050600073ffffffffffffffffffffffffffffffffffffffff168373ffffffffffffffffffffffffffffffffffffffff1614610c3457610c338184866115d3565b5b600073ffffffffffffffffffffffffffffffffffffffff168173ffffffffffffffffffffffffffffffffffffffff1614610cc557610c7660008560008061140e565b6001600360008373ffffffffffffffffffffffffffffffffffffffff1673ffffffffffffffffffffffffffffffffffffffff168152602001908152602001600020600082825403925050819055505b600073ffffffffffffffffffffffffffffffffffffffff168573ffffffffffffffffffffffffffffffffffffffff1614610d48576001600360008773ffffffffffffffffffffffffffffffffffffffff1673ffffffffffffffffffffffffffffffffffffffff168152602001908152602001600020600082825401925050819055505b846002600086815260200190815260200160002060006101000a81548173ffffffffffffffffffffffffffffffffffffffff021916908373ffffffffffffffffffffffffffffffffffffffff160217905550838573ffffffffffffffffffffffffffffffffffffffff168273ffffffffffffffffffffffffffffffffffffffff167fddf252ad1be2c89b69c2b068fc378daa952ba7f163c4a11628f55a4df523b3ef60405160405180910390a4809150509392505050565b610e08610bcc565b73ffffffffffffffffffffffffffffffffffffffff16610e266106bc565b73ffffffffffffffffffffffffffffffffffffffff1614610e8557610e49610bcc565b6040517f118cdaa7000000000000000000000000000000000000000000000000000000008152600401610e7c9190611cbb565b60405180910390fd5b565b6000600760009054906101000a900473ffffffffffffffffffffffffffffffffffffffff16905081600760006101000a81548173ffffffffffffffffffffffffffffffffffffffff021916908373ffffffffffffffffffffffffffffffffffffffff1602179055508173ffffffffffffffffffffffffffffffffffffffff168173ffffffffffffffffffffffffffffffffffffffff167f8be0079c531659141344cd1fd0a4f28419497f9722a3daafe3b4186f6b6457e060405160405180910390a35050565b600073ffffffffffffffffffffffffffffffffffffffff168273ffffffffffffffffffffffffffffffffffffffff1603610fbe57816040517f5b08ba18000000000000000000000000000000000000000000000000000000008152600401610fb59190611cbb565b60405180910390fd5b80600560008573ffffffffffffffffffffffffffffffffffffffff1673ffffffffffffffffffffffffffffffffffffffff16815260200190815260200160002060008473ffffffffffffffffffffffffffffffffffffffff1673ffffffffffffffffffffffffffffffffffffffff16815260200190815260200160002060006101000a81548160ff0219169083151502179055508173ffffffffffffffffffffffffffffffffffffffff168373ffffffffffffffffffffffffffffffffffffffff167f17307eab39ab6107e8899845ad3d59bd9653f200f220920489ca2b5937696c31836040516110af9190611b4a565b60405180910390a3505050565b60008373ffffffffffffffffffffffffffffffffffffffff163b1115611266578273ffffffffffffffffffffffffffffffffffffffff1663150b7a02868685856040518563ffffffff1660e01b815260040161111b94939291906122e9565b6020604051808303816000875af192505050801561115757506040513d601f19601f82011682018060405250810190611154919061234a565b60015b6111db573d8060008114611187576040519150601f19603f3d011682016040523d82523d6000602084013e61118c565b606091505b5060008151036111d357836040517f64a0ae920000000000000000000000000000000000000000000000000000000081526004016111ca9190611cbb565b60405180910390fd5b805181602001fd5b63150b7a0260e01b7bffffffffffffffffffffffffffffffffffffffffffffffffffffffff1916817bffffffffffffffffffffffffffffffffffffffffffffffffffffffff19161461126457836040517f64a0ae9200000000000000000000000000000000000000000000000000000000815260040161125b9190611cbb565b60405180910390fd5b505b5050505050565b606060405180602001604052806000815250905090565b606061128f82610b07565b50600061129a61126d565b905060008151116112ba57604051806020016040528060008152506112e5565b806112c484611697565b6040516020016112d592919061220d565b6040516020818303038152906040525b915050919050565b611307828260405180602001604052806000815250611765565b5050565b8060066000848152602001908152602001600020908161132b9190612523565b507ff8e1a15aba9398e019f0b49df1a4fde98ee17ae345cb5f6b5e2c27f5033e8ce78260405161135b9190611dd1565b60405180910390a15050565b60007f01ffc9a7000000000000000000000000000000000000000000000000000000007bffffffffffffffffffffffffffffffffffffffffffffffffffffffff1916827bffffffffffffffffffffffffffffffffffffffffffffffffffffffff1916149050919050565b60006002600083815260200190815260200160002060009054906101000a900473ffffffffffffffffffffffffffffffffffffffff169050919050565b80806114475750600073ffffffffffffffffffffffffffffffffffffffff168273ffffffffffffffffffffffffffffffffffffffff1614155b1561157b57600061145784610b07565b9050600073ffffffffffffffffffffffffffffffffffffffff168373ffffffffffffffffffffffffffffffffffffffff16141580156114c257508273ffffffffffffffffffffffffffffffffffffffff168173ffffffffffffffffffffffffffffffffffffffff1614155b80156114d557506114d381846108cc565b155b1561151757826040517fa9fbf51f00000000000000000000000000000000000000000000000000000000815260040161150e9190611cbb565b60405180910390fd5b811561157957838573ffffffffffffffffffffffffffffffffffffffff168273ffffffffffffffffffffffffffffffffffffffff167f8c5be1e5ebec7d5bd14f71427d1e84f3dd0314c0f7b2291e5b200ac8c7c3b92560405160405180910390a45b505b836004600085815260200190815260200160002060006101000a81548173ffffffffffffffffffffffffffffffffffffffff021916908373ffffffffffffffffffffffffffffffffffffffff16021790555050505050565b6115de838383611789565b61169257600073ffffffffffffffffffffffffffffffffffffffff168373ffffffffffffffffffffffffffffffffffffffff160361165357806040517f7e27328900000000000000000000000000000000000000000000000000000000815260040161164a9190611dd1565b60405180910390fd5b81816040517f177e802f0000000000000000000000000000000000000000000000000000000081526004016116899291906125f5565b60405180910390fd5b505050565b6060600060016116a68461184a565b01905060008167ffffffffffffffff8111156116c5576116c4611e62565b5b6040519080825280601f01601f1916602001820160405280156116f75781602001600182028036833780820191505090505b509050600082602001820190505b60011561175a578080600190039150507f3031323334353637383961626364656600000000000000000000000000000000600a86061a8153600a858161174e5761174d61261e565b5b04945060008503611705575b819350505050919050565b61176f838361199d565b61178461177a610bcc565b60008585856110bc565b505050565b60008073ffffffffffffffffffffffffffffffffffffffff168373ffffffffffffffffffffffffffffffffffffffff161415801561184157508273ffffffffffffffffffffffffffffffffffffffff168473ffffffffffffffffffffffffffffffffffffffff161480611802575061180184846108cc565b5b8061184057508273ffffffffffffffffffffffffffffffffffffffff1661182883610b8f565b73ffffffffffffffffffffffffffffffffffffffff16145b5b90509392505050565b600080600090507a184f03e93ff9f4daa797ed6e38ed64bf6a1f01000000000000000083106118a8577a184f03e93ff9f4daa797ed6e38ed64bf6a1f010000000000000000838161189e5761189d61261e565b5b0492506040810190505b6d04ee2d6d415b85acef810000000083106118e5576d04ee2d6d415b85acef810000000083816118db576118da61261e565b5b0492506020810190505b662386f26fc10000831061191457662386f26fc10000838161190a5761190961261e565b5b0492506010810190505b6305f5e100831061193d576305f5e10083816119335761193261261e565b5b0492506008810190505b61271083106119625761271083816119585761195761261e565b5b0492506004810190505b60648310611985576064838161197b5761197a61261e565b5b0492506002810190505b600a8310611994576001810190505b80915050919050565b600073ffffffffffffffffffffffffffffffffffffffff168273ffffffffffffffffffffffffffffffffffffffff1603611a0f5760006040517f64a0ae92000000000000000000000000000000000000000000000000000000008152600401611a069190611cbb565b60405180910390fd5b6000611a1d83836000610be6565b9050600073ffffffffffffffffffffffffffffffffffffffff168173ffffffffffffffffffffffffffffffffffffffff1614611a915760006040517f73c6ac6e000000000000000000000000000000000000000000000000000000008152600401611a889190611cbb565b60405180910390fd5b505050565b6000604051905090565b600080fd5b600080fd5b60007fffffffff0000000000000000000000000000000000000000000000000000000082169050919050565b611adf81611aaa565b8114611aea57600080fd5b50565b600081359050611afc81611ad6565b92915050565b600060208284031215611b1857611b17611aa0565b5b6000611b2684828501611aed565b91505092915050565b60008115159050919050565b611b4481611b2f565b82525050565b6000602082019050611b5f6000830184611b3b565b92915050565b600081519050919050565b600082825260208201905092915050565b60005b83811015611b9f578082015181840152602081019050611b84565b60008484015250505050565b6000601f19601f8301169050919050565b6000611bc782611b65565b611bd18185611b70565b9350611be1818560208601611b81565b611bea81611bab565b840191505092915050565b60006020820190508181036000830152611c0f8184611bbc565b905092915050565b6000819050919050565b611c2a81611c17565b8114611c3557600080fd5b50565b600081359050611c4781611c21565b92915050565b600060208284031215611c6357611c62611aa0565b5b6000611c7184828501611c38565b91505092915050565b600073ffffffffffffffffffffffffffffffffffffffff82169050919050565b6000611ca582611c7a565b9050919050565b611cb581611c9a565b82525050565b6000602082019050611cd06000830184611cac565b92915050565b611cdf81611c9a565b8114611cea57600080fd5b50565b600081359050611cfc81611cd6565b92915050565b60008060408385031215611d1957611d18611aa0565b5b6000611d2785828601611ced565b9250506020611d3885828601611c38565b9150509250929050565b600080600060608486031215611d5b57611d5a611aa0565b5b6000611d6986828701611ced565b9350506020611d7a86828701611ced565b9250506040611d8b86828701611c38565b9150509250925092565b600060208284031215611dab57611daa611aa0565b5b6000611db984828501611ced565b91505092915050565b611dcb81611c17565b82525050565b6000602082019050611de66000830184611dc2565b92915050565b611df581611b2f565b8114611e0057600080fd5b50565b600081359050611e1281611dec565b92915050565b60008060408385031215611e2f57611e2e611aa0565b5b6000611e3d85828601611ced565b9250506020611e4e85828601611e03565b9150509250929050565b600080fd5b600080fd5b7f4e487b7100000000000000000000000000000000000000000000000000000000600052604160045260246000fd5b611e9a82611bab565b810181811067ffffffffffffffff82111715611eb957611eb8611e62565b5b80604052505050565b6000611ecc611a96565b9050611ed88282611e91565b919050565b600067ffffffffffffffff821115611ef857611ef7611e62565b5b611f0182611bab565b9050602081019050919050565b82818337600083830152505050565b6000611f30611f2b84611edd565b611ec2565b905082815260208101848484011115611f4c57611f4b611e5d565b5b611f57848285611f0e565b509392505050565b600082601f830112611f7457611f73611e58565b5b8135611f84848260208601611f1d565b91505092915050565b60008060008060808587031215611fa757611fa6611aa0565b5b6000611fb587828801611ced565b9450506020611fc687828801611ced565b9350506040611fd787828801611c38565b925050606085013567ffffffffffffffff811115611ff857611ff7611aa5565b5b61200487828801611f5f565b91505092959194509250565b6000806040838503121561202757612026611aa0565b5b600061203585828601611ced565b925050602061204685828601611ced565b9150509250929050565b600067ffffffffffffffff82111561206b5761206a611e62565b5b61207482611bab565b9050602081019050919050565b600061209461208f84612050565b611ec2565b9050828152602081018484840111156120b0576120af611e5d565b5b6120bb848285611f0e565b509392505050565b600082601f8301126120d8576120d7611e58565b5b81356120e8848260208601612081565b91505092915050565b60006020828403121561210757612106611aa0565b5b600082013567ffffffffffffffff81111561212557612124611aa5565b5b612131848285016120c3565b91505092915050565b7f4e487b7100000000000000000000000000000000000000000000000000000000600052602260045260246000fd5b6000600282049050600182168061218157607f821691505b6020821081036121945761219361213a565b5b50919050565b60006060820190506121af6000830186611cac565b6121bc6020830185611dc2565b6121c96040830184611cac565b949350505050565b600081905092915050565b60006121e782611b65565b6121f181856121d1565b9350612201818560208601611b81565b80840191505092915050565b600061221982856121dc565b915061222582846121dc565b91508190509392505050565b7f4e487b7100000000000000000000000000000000000000000000000000000000600052601160045260246000fd5b600061226b82611c17565b915061227683611c17565b925082820190508082111561228e5761228d612231565b5b92915050565b600081519050919050565b600082825260208201905092915050565b60006122bb82612294565b6122c5818561229f565b93506122d5818560208601611b81565b6122de81611bab565b840191505092915050565b60006080820190506122fe6000830187611cac565b61230b6020830186611cac565b6123186040830185611dc2565b818103606083015261232a81846122b0565b905095945050505050565b60008151905061234481611ad6565b92915050565b6000602082840312156123605761235f611aa0565b5b600061236e84828501612335565b91505092915050565b60008190508160005260206000209050919050565b60006020601f8301049050919050565b600082821b905092915050565b6000600883026123d97fffffffffffffffffffffffffffffffffffffffffffffffffffffffffffffffff8261239c565b6123e3868361239c565b95508019841693508086168417925050509392505050565b6000819050919050565b600061242061241b61241684611c17565b6123fb565b611c17565b9050919050565b6000819050919050565b61243a83612405565b61244e61244682612427565b8484546123a9565b825550505050565b600090565b612463612456565b61246e818484612431565b505050565b5b818110156124925761248760008261245b565b600181019050612474565b5050565b601f8211156124d7576124a881612377565b6124b18461238c565b810160208510156124c0578190505b6124d46124cc8561238c565b830182612473565b50505b505050565b600082821c905092915050565b60006124fa600019846008026124dc565b1980831691505092915050565b600061251383836124e9565b9150826002028217905092915050565b61252c82611b65565b67ffffffffffffffff81111561254557612544611e62565b5b61254f8254612169565b61255a828285612496565b600060209050601f83116001811461258d576000841561257b578287015190505b6125858582612507565b8655506125ed565b601f19841661259b86612377565b60005b828110156125c35784890151825560018201915060208501945060208101905061259e565b868310156125e057848901516125dc601f8916826124e9565b8355505b6001600288020188555050505b505050505050565b600060408201905061260a6000830185611cac565b6126176020830184611dc2565b9392505050565b7f4e487b7100000000000000000000000000000000000000000000000000000000600052601260045260246000fdfea264697066735822122010d1b3026d672181f2f268840968e2dcb8a78a2ba2c61d7461f289eaca75377b64736f6c634300081c0033",
  "linkReferences": {},
  "deployedLinkReferences": {}
}